{
  "contractName": "Shop",
  "abi": [
    {
      "constant": true,
      "inputs": [
        {
          "name": "",
          "type": "address"
        }
      ],
      "name": "is_buyer",
      "outputs": [
        {
          "name": "",
          "type": "bool"
        }
      ],
      "payable": false,
      "stateMutability": "view",
      "type": "function"
    },
    {
      "constant": true,
      "inputs": [],
      "name": "item_id",
      "outputs": [
        {
          "name": "",
          "type": "uint256"
        }
      ],
      "payable": false,
      "stateMutability": "view",
      "type": "function"
    },
    {
      "constant": true,
      "inputs": [
        {
          "name": "",
          "type": "uint256"
        }
      ],
      "name": "items",
      "outputs": [
        {
          "name": "id",
          "type": "uint256"
        },
        {
          "name": "seller",
          "type": "address"
        },
        {
          "name": "item_name",
          "type": "string"
        },
        {
          "name": "price",
          "type": "uint256"
        },
        {
          "name": "stock",
          "type": "uint256"
        },
        {
          "name": "SoldTo",
          "type": "address"
        },
        {
          "name": "IsSold",
          "type": "bool"
        }
      ],
      "payable": false,
      "stateMutability": "view",
      "type": "function"
    },
    {
      "constant": true,
      "inputs": [
        {
          "name": "",
          "type": "address"
        }
      ],
      "name": "is_seller",
      "outputs": [
        {
          "name": "",
          "type": "bool"
        }
      ],
      "payable": false,
      "stateMutability": "view",
      "type": "function"
    },
    {
      "anonymous": false,
      "inputs": [
        {
          "indexed": false,
          "name": "Seller",
          "type": "address"
        },
        {
          "indexed": false,
          "name": "name",
          "type": "string"
        },
        {
          "indexed": false,
          "name": "price",
          "type": "uint256"
        }
      ],
      "name": "Sell",
      "type": "event"
    },
    {
      "anonymous": false,
      "inputs": [
        {
          "indexed": false,
          "name": "BoughtFrom",
          "type": "address"
        },
        {
          "indexed": false,
          "name": "BoughtBy",
          "type": "address"
        },
        {
          "indexed": false,
          "name": "ItemBought",
          "type": "string"
        },
        {
          "indexed": false,
          "name": "ItemPrice",
          "type": "uint256"
        }
      ],
      "name": "Buy",
      "type": "event"
    },
    {
      "constant": false,
      "inputs": [
        {
          "name": "_item_name",
          "type": "string"
        },
        {
          "name": "_price",
          "type": "uint256"
        }
      ],
      "name": "SellingItems",
      "outputs": [],
      "payable": false,
      "stateMutability": "nonpayable",
      "type": "function"
    },
    {
      "constant": true,
      "inputs": [
        {
          "name": "_item_id",
          "type": "uint256"
        }
      ],
      "name": "FindItems_withID",
      "outputs": [
        {
          "name": "",
          "type": "address"
        },
        {
          "name": "",
          "type": "string"
        },
        {
          "name": "",
          "type": "uint256"
        },
        {
          "name": "",
          "type": "address"
        }
      ],
      "payable": false,
      "stateMutability": "view",
      "type": "function"
    },
    {
      "constant": true,
      "inputs": [
        {
          "name": "_item_name",
          "type": "string"
        }
      ],
      "name": "FindItems_withName",
      "outputs": [
        {
          "name": "",
          "type": "uint256"
        }
      ],
      "payable": false,
      "stateMutability": "view",
      "type": "function"
    },
    {
      "constant": true,
      "inputs": [],
      "name": "getL",
      "outputs": [
        {
          "name": "",
          "type": "uint256"
        }
      ],
      "payable": false,
      "stateMutability": "view",
      "type": "function"
    },
    {
      "constant": true,
      "inputs": [
        {
          "name": "_item_name",
          "type": "string"
        }
      ],
      "name": "getHistoryL",
      "outputs": [
        {
          "name": "",
          "type": "uint256"
        }
      ],
      "payable": false,
      "stateMutability": "view",
      "type": "function"
    },
    {
      "constant": true,
      "inputs": [
        {
          "name": "index",
          "type": "uint256"
        }
      ],
      "name": "getID",
      "outputs": [
        {
          "name": "",
          "type": "uint256"
        }
      ],
      "payable": false,
      "stateMutability": "view",
      "type": "function"
    },
    {
      "constant": true,
      "inputs": [
        {
          "name": "_item_name",
          "type": "string"
        },
        {
          "name": "index",
          "type": "uint256"
        }
      ],
      "name": "getID",
      "outputs": [
        {
          "name": "",
          "type": "uint256"
        }
      ],
      "payable": false,
      "stateMutability": "view",
      "type": "function"
    },
    {
      "constant": false,
      "inputs": [
        {
          "name": "_item_id",
          "type": "uint256"
        }
      ],
      "name": "BuyItems",
      "outputs": [],
      "payable": true,
      "stateMutability": "payable",
      "type": "function"
    }
  ],
  "bytecode": "0x608060405234801561001057600080fd5b5061124b806100206000396000f3006080604052600436106100b85763ffffffff7c0100000000000000000000000000000000000000000000000000000000600035041662f3cb2181146100bd5780630b41f9a7146100f25780630d18e43c1461015d57806339df7de6146101755780633c69a1c71461018a57806371a263211461019757806375d2b179146101f2578063841b8d341461024d57806388cdfd1b14610262578063bfb231d214610312578063f4b029f5146103f4578063feea375514610415575b600080fd5b3480156100c957600080fd5b506100de600160a060020a036004351661046e565b604080519115158252519081900360200190f35b3480156100fe57600080fd5b506040805160206004803580820135601f810184900484028501840190955284845261014b9436949293602493928401919081908401838280828437509497506104839650505050505050565b60408051918252519081900360200190f35b34801561016957600080fd5b5061014b6004356104ed565b34801561018157600080fd5b5061014b61051a565b610195600435610520565b005b3480156101a357600080fd5b506040805160206004803580820135601f810184900484028501840190955284845261019594369492936024939284019190819084018382808284375094975050933594506109a69350505050565b3480156101fe57600080fd5b506040805160206004803580820135601f810184900484028501840190955284845261014b9436949293602493928401919081908401838280828437509497505093359450610d999350505050565b34801561025957600080fd5b5061014b610e1b565b34801561026e57600080fd5b5061027a600435610e2f565b60408051600160a060020a038087168252918101849052908216606082015260806020808301828152865192840192909252855160a084019187019080838360005b838110156102d45781810151838201526020016102bc565b50505050905090810190601f1680156103015780820380516001836020036101000a031916815260200191505b509550505050505060405180910390f35b34801561031e57600080fd5b5061032a600435610f25565b6040518088815260200187600160a060020a0316600160a060020a031681526020018060200186815260200185815260200184600160a060020a0316600160a060020a0316815260200183151515158152602001828103825287818151815260200191508051906020019080838360005b838110156103b357818101518382015260200161039b565b50505050905090810190601f1680156103e05780820380516001836020036101000a031916815260200191505b509850505050505050505060405180910390f35b34801561040057600080fd5b506100de600160a060020a0360043516611012565b34801561042157600080fd5b506040805160206004803580820135601f810184900484028501840190955284845261014b9436949293602493928401919081908401838280828437509497506110279650505050505050565b60056020526000908152604090205460ff1681565b60006003826040518082805190602001908083835b602083106104b75780518252601f199092019160209182019101610498565b51815160209384036101000a6000190180199092169116179052920194855250604051938490030190922054925050505b919050565b33600090815260208190526040812080548390811061050857fe5b90600052602060002001549050919050565b60025481565b60008181526001602081905260408083206003810154920154600254845290832060050154670de0b6b3a7640000909202923392600160a060020a0390921691819074010000000000000000000000000000000000000000900460ff16156105d2576040805160e560020a62461bcd02815260206004820152601560248201527f50726f64756374206e6f7420617661696c61626c650000000000000000000000604482015290519081900360640190fd5b600160a060020a03841631851115610634576040805160e560020a62461bcd02815260206004820152601260248201527f4e6f7420656e6f7567682062616c616e63650000000000000000000000000000604482015290519081900360640190fd5b60008681526004602052604090205460ff16151560011461069f576040805160e560020a62461bcd02815260206004820152601360248201527f4974656d20646f6573206e6f7420657869737400000000000000000000000000604482015290519081900360640190fd5b3485146106f6576040805160e560020a62461bcd02815260206004820152601e60248201527f54686973206973206e6f742074686520636f727265637420616d6f756e740000604482015290519081900360640190fd5b600160a060020a038481169084161415610780576040805160e560020a62461bcd02815260206004820152602160248201527f596f752061726520746865206f776e6572206f6620746869732070726f64756360448201527f7400000000000000000000000000000000000000000000000000000000000000606482015290519081900360840190fd5b604051600160a060020a038416903480156108fc02916000818181858888f193505050501580156107b5573d6000803e3d6000fd5b505060028054600090815260016020526040808220600501805474ff0000000000000000000000000000000000000000191674010000000000000000000000000000000000000000179055915481529081206004018190559050805b610819610e1b565b81101561084157610829816104ed565b8614156108395760019150610841565b600101610811565b81151561087257600160a060020a038416600090815260208181526040822080546001810182559083529120018690555b60008681526001602081815260408084206005808201805473ffffffffffffffffffffffffffffffffffffffff1916600160a060020a038c8116918217909255808852918552838720805460ff191687179055958c905284845260038201548351968a1687529386015260608501839052608091850182815260029182018054610100968116159690960260001901909516919091049185018290527fac2c314b890fc2505cce23ac42896ce301375b1bbda3d9eafa09d53a2ea63a7d9488948a94909390929060a08301908590801561098d5780601f106109625761010080835404028352916020019161098d565b820191906000526020600020905b81548152906001019060200180831161097057829003601f168201915b50509550505050505060405180910390a1505050505050565b8015801590610ade5750604080516000815260208101918290528051909190819081908082805b602083106109ec5780518252601f1990920191602091820191016109cd565b51815160209384036101000a60001901801990921691161790526040519190930181900381208751909550879450908301928392508401908083835b60208310610a475780518252601f199092019160209182019101610a28565b6001836020036101000a0380198251168184511680821785525050505050509050019150506040516020818303038152906040526040518082805190602001908083835b60208310610aaa5780518252601f199092019160209182019101610a8b565b6001836020036101000a03801982511681845116808217855250505050505090500191505060405180910390206000191614155b1515610b34576040805160e560020a62461bcd02815260206004820152601860248201527f496c6c656769746d61746520526567697374726174696f6e0000000000000000604482015290519081900360640190fd5b60028054600190810180835560008181526020838152604080832093845592909301805473ffffffffffffffffffffffffffffffffffffffff19163317905583548152208451610b8b939190910191850190611187565b506002805460009081526001602081815260408084206003018690558454845280842060040183905593548352838320600501805474ff0000000000000000000000000000000000000000191690553383526006815291839020805460ff1916821790559151845160079286929182918401908083835b60208310610c215780518252601f199092019160209182019101610c02565b51815160001960209485036101000a01908116901991909116179052920194855250604080519485900382018520805496151560ff199788161790556002546000908152600483522080549095166001179094555050835160039285929182918401908083835b60208310610ca75780518252601f199092019160209182019101610c88565b51815160209384036101000a600019018019909216911617905292019485525060408051948590038201852060025481546001810183556000928352848320015533808752918601879052606086840181815289519188019190915288517f28c98ff494d4e695c77ed00d69e6e677f8920876e0c531a79ad88c2a505cb2bf97939650899550889491926080850192870191908190849084905b83811015610d59578181015183820152602001610d41565b50505050905090810190601f168015610d865780820380516001836020036101000a031916815260200191505b5094505050505060405180910390a15050565b60006003836040518082805190602001908083835b60208310610dcd5780518252601f199092019160209182019101610dae565b51815160209384036101000a6000190180199092169116179052920194855250604051938490030190922080549092508491508110610e0857fe5b9060005260206000200154905092915050565b336000908152602081905260409020545b90565b6000818152600460205260408120546060908290819060ff161515600114610e5657600080fd5b60008581526001602081815260409283902080830154600382015460058301546002938401805488516101009882161598909802600019011694909404601f8101869004860287018601909752868652600160a060020a0392831696939591949216929091859190830182828015610f0f5780601f10610ee457610100808354040283529160200191610f0f565b820191906000526020600020905b815481529060010190602001808311610ef257829003601f168201915b5050505050925093509350935093509193509193565b6001602081815260009283526040928390208054818401546002808401805488516101009882161598909802600019011691909104601f81018690048602870186019097528686529195600160a060020a03909116949293830182828015610fce5780601f10610fa357610100808354040283529160200191610fce565b820191906000526020600020905b815481529060010190602001808311610fb157829003601f168201915b505050506003830154600484015460059094015492939092909150600160a060020a0381169074010000000000000000000000000000000000000000900460ff1687565b60066020526000908152604090205460ff1681565b60006007826040518082805190602001908083835b6020831061105b5780518252601f19909201916020918201910161103c565b51815160001960209485036101000a0190811690199190911617905292019485525060405193849003019092205460ff16151560011415915061117f9050576003826040518082805190602001908083835b602083106110cc5780518252601f1990920191602091820191016110ad565b51815160209384036101000a600019018019909216911617905292019485525060405193849003810184208651909460019450600393508792909182918401908083835b6020831061112f5780518252601f199092019160209182019101611110565b51815160209384036101000a60001901801990921691161790529201948552506040519384900301909220548454939003928310915061116d905057fe5b906000526020600020015490506104e8565b5060006104e8565b828054600181600116156101000203166002900490600052602060002090601f016020900481019282601f106111c857805160ff19168380011785556111f5565b828001600101855582156111f5579182015b828111156111f55782518255916020019190600101906111da565b50611201929150611205565b5090565b610e2c91905b80821115611201576000815560010161120b5600a165627a7a7230582064d243ca26941dd3fb4c482872ec95f3ffdd6ff72ca5a3eedc14d3fb985898320029",
  "source": "pragma solidity ^0.4.25;\r\n\r\ncontract Shop {\r\n    struct Item {\r\n        uint id;\r\n        address seller;\r\n        string item_name;\r\n        uint price;\r\n        uint stock;\r\n        address SoldTo;\r\n\t\tbool IsSold;\r\n    }\r\n    \r\n    struct History {\r\n        uint[] id;\r\n    }\r\n    \r\n    struct Buyer\r\n    {\r\n        uint[] id;\r\n    }\r\n    \r\n    mapping (address=>Buyer) buyers;\r\n    mapping (uint=>Item) public items;\r\n    uint public item_id;\r\n    mapping (string=>History) history;\r\n    mapping (uint=>bool) item_existence;\r\n    mapping (address=>bool) public is_buyer;\r\n    mapping (address=>bool) public is_seller;\r\n    mapping (string=>bool) item;\r\n    \r\n    event Sell(\r\n        address Seller, \r\n        string name, \r\n        uint price\r\n        );\r\n    \r\n    event Buy(\r\n        address BoughtFrom, \r\n        address BoughtBy, \r\n        string ItemBought, \r\n        uint ItemPrice\r\n        );\r\n    \r\n    function SellingItems (string _item_name, uint _price) public {\r\n        require(_price!=0 && keccak256(abi.encodePacked((_item_name))) != keccak256(abi.encodePacked((\"\"))),\"Illegitmate Registration\");\r\n        item_id++;\r\n        items[item_id].id = item_id;\r\n        items[item_id].seller=msg.sender;\r\n        items[item_id].item_name=_item_name;\r\n        items[item_id].price=_price;\r\n        items[item_id].stock = 1;\r\n\titems[item_id].IsSold = false;\r\n        is_seller[msg.sender]=true;\r\n        item[_item_name]=true;\r\n        item_existence[item_id]=true;\r\n        history[_item_name].id.push(item_id);\r\n        emit Sell(msg.sender,_item_name,_price);\r\n    }\r\n    \r\n    function FindItems_withID (uint _item_id) public constant returns (address,string,uint,address) {\r\n        if (item_existence[_item_id]!=true) revert();\r\n        return (items[_item_id].seller,items[_item_id].item_name,items[_item_id].price,items[_item_id].SoldTo);\r\n    }\r\n    \r\n    function FindItems_withName (string _item_name) public constant returns (uint) {\r\n        if(item[_item_name]==true){\r\n            return history[_item_name].id[history[_item_name].id.length-1];\r\n        }\r\n        else{ return 0;}\r\n    }\r\n    \r\n    function getL() public constant returns (uint) {\r\n        return buyers[msg.sender].id.length;\r\n    }\r\n    \r\n    function getID(uint index) public constant returns (uint) {\r\n        return buyers[msg.sender].id[index];\r\n    }\r\n    \r\n    function getHistoryL(string _item_name) public constant returns (uint) {\r\n        return history[_item_name].id.length;\r\n    }\r\n    \r\n    function getID(string _item_name,uint index) public constant returns (uint) {\r\n        return history[_item_name].id[index];\r\n    }\r\n\r\n    function BuyItems (uint _item_id) public payable {\r\n        uint price = items[_item_id].price * 1000000000000000000;\r\n        address myAddress = msg.sender;\r\n        address s = items[_item_id].seller;\r\n\t\trequire(items[item_id].IsSold == false,\"Product not available\");\r\n        require(myAddress.balance >= price, \"Not enough balance\"); \r\n        require(item_existence[_item_id]==true, \"Item does not exist\");\r\n        require(msg.value==price,\"This is not the correct amount\");\r\n        require(myAddress!=s,\"You are the owner of this product\");\r\n        s.transfer(msg.value);\r\n\t\titems[item_id].IsSold = true;\r\n\t\tuint flag = 0;\r\n        items[item_id].stock = 0;\r\n\t\tfor (uint i = 0; i < getL(); i++) {\r\n\t\t\tif(_item_id==getID(i)) {\r\n\t\t\t\tflag = 1;\r\n\t\t\t\tbreak;\r\n\t\t\t}\r\n\t\t}\r\n\t\tif (flag == 0) {\r\n\t\t    buyers[myAddress].id.push(_item_id);\r\n\t\t}\r\n\t\titems[_item_id].SoldTo = myAddress;\r\n        is_buyer[myAddress]=true;\r\n        emit Buy(s,myAddress,items[_item_id].item_name,items[_item_id].price);\r\n    }    \r\n} \r\n",
  "sourcePath": "/home/sameer/Ethereum/Store/contracts/Shop.sol",
  "compiler": {
    "name": "solc",
    "version": "0.4.25+commit.59dbf8f1.Emscripten.clang"
  },
  "schemaVersion": "2.0.2",
  "updatedAt": "2019-07-26T05:26:33.922Z"
}